:10051A0012013912056512059BD2AF12038D80FBB9
:0B045300AF40AE3FAD3EAC3D1204E4F4
:10045E007E08C2CCC2B0AD061EED6015EF30E704CB
:10046E00D2B08002C2B0D2CC00C2CCEF25E0FF8069
:03047E00E5D2B014
:010481002258
:10049D00E4FFFEEF25E030B0054401FF8001FFD2FF
:0904AD00CC00C2CC000EBE08EA2E
:0104B6002223
:10052A00AC05C2CD12045E00AF0412045ED2CD2225
:0D054A00C2CD43074012045E12049DD2CDC5
:010557002281
:100422008F408E3F8D3E8C3DC2CD7F0612045E789A
:10043200181204537810120453AF40AE3FAD3EACD5
:100442003D78081204E412045EAF4012045ED2CD7D
:010452002287
:1004B700C2CD7F4612045EE4FD12049D74212DF81F
:0804C700A6070DBD04F3D2CD20
:0104CF00220A
:02032500AC0723
:10032700C2CD7F0512045EAF0412045E7F0612047D
:100337005EE4FF12045EE4FF12045E7F3012045E87
:10034700E4FCC2AFEC25E0240AF808E6FFEC25E060
:100357002425F8A607EC25E0240AF8E6FEEEFFECD4
:1003670025E02426F8A607D2AFEC25E02425F8E6F9
:10037700FF12045EEC25E02426F8E6FF12045E0C6B
:05038700BC08BFD2CD4F
:01038C00224E
:08058600C2CD12045ED2CD22A9
:06059500E4FDFF02052A4F
:08057D007F0C7EA9DEFEDFFC0D
:010585002253
:1004D000AD07AC06ED1DAE0470011C4E60051205A3
:0404E0007D80F12208
:1004F700AB07AA06C2B11204D0D2B1AF03AE020253
:0205070004D01E
:0D0558008F828E83AF82AE831204F780F78E
:0305A100B2B122D2
:0C056500538EFBE4F5D7F5D6438E102230
:0C057100538EEFE4F5D6F5D7438E102230
:10000600FF42001400FFFF00000000012105005020
:100016009E4B0002162B1200628080000A32C30F2C
:1000260013C300FF00003B0017478003014518007B
:10003600010FFF0A5A14641E6E287832823C8C46E1
:100046009650A0A05096468C3C823278286E1E644C
:10005600145A0A0A5A50A0146446961E6E3C8C28FE
:10006600783282823278288C3C6E1E96466414A0C2
:10007600505A0A28780A5A50A014641E6E3C8C32D4
:10008600824696964682328C3C6E1E6414A0505A66
:100096000A782850A028780A5A1E6E3C8C3282466E
:1000A6009614646414964682328C3C6E1E5A0A7804
:1000B60028A05050A046963C8C28780A5A32821EB8
:1000C6006E146464146E1E82325A0A78288C3C962A
:1000D60046A05046963C8C50A028780A5A1E6E328E
:1000E600821464641482326E1E5A0A7828A0508CD8
:1000F6003C964646960A5A3C8C146450A028781EB4
:100106006E328282326E1E7828A05064148C3C5A5D
:100116000A964646960A5A50A03C8C28781E6E329D
:10012600821464641482326E1E78288C3CA0505A65
:030136000A9646E0
:10048200100A05DC05DC041A05DC05DC05DC05DCEC
:0504920005DC01086417
:1003E400E50860397FA01205867FE01205867D014D
:1003F4007F0F12052A7FAA1203257FD01205867F5C
:100404000A7E001204D0E508131313541FFF30E0D2
:0D04140002C2B1EF20E002D2B1150880C392
:0104210022B8
:10053A0020B10A7F017E001204D07F01227F0022AF
:10013900D2CDD2B0C2CC7F0A7E001204D01205956E
:100149007F2A7EC57D757C54120422E4F53CE53C8A
:1001590090000693FDF46005AF3C12052A053CE5C5
:100169003CC3943340E87FA01205867D017F0212CB
:10017900052A7F0212054AEF600B7F2212054AEF1A
:1001890030E4EF80ED7D137F2412052A7D3B7F2625
:1001990012052AE4FD7F0F12052A7D027F0212054E
:1001A9002A7F0212054AEF600B7F2512054AEF30BC
:1001B900E3EF80ED7DA07F0F12052A7D027F0212F9
:1001C900052A7F0212054AEF600B7F2512054AEFC7
:1001D90030E3EF80ED7D087F2512052A7D1F7F28FA
:1001E90012052A7FA012058612053AEF6003120351
:0B01F900E4C2B1751C06E4F509F51A1C
:0102040022D7
:10038D00AFD6EFFEADD7EDD394B4EE648094854037
:10039D0045120571E51CC454F02439F582E434008E
:1003AD00F583E582251AF582E43583F583E493C35D
:1003BD009509F51B7FA01205867FE0120586AD1B02
:1003CD007F0F12052A7F551203257FD0120586E572
:0703DD001A04540FF51A2267
:05049700011D00C10081
:10050900538E7F5389F0438901E4F58AF58CC28DB6
:0105190022BF
:07058E00C288D2A8D2AF22FF
:06059B0012050902058EA5
:03000300020205F1
:10020500C0E0C0F0C083C082C0D075D000C000C0BF
:0D02150001C002C003C004C005C006C00740
:10022200753A00753B0030B253208C028012C28CAA
:10023200AF8C753A008F3BE53BAD8AF53AEDF53B65
:10024200758C00758A00D28C300021D3E53B94B8BE
:10025200E53A940B4007C2001205A1800FAF1D05BD
:100262001DEF25E0240AF8A63A08A63BD3E53B9405
:0C027200B8E53A940B4005D200751D0061
:10027E00D007D006D005D004D003D002D001D000D4
:0B028E00D0D0D082D083D0F0D0E0327E
:0300000002029960
:0C029900787FE4F6D8FD7581400202E099
:1004E400E8600FECC313FCED13FDEE13FEEF13FFF6
:0304F400D8F1221A
:1002A50002051AE493A3F8E493A34003F68001F250
:1002B50008DFF48029E493A3F85407240CC8C3335A
:1002C500C4540F4420C8834004F456800146F6DF29
:1002D500E4800B0102040810204080900482E47E33
:1002E500019360BCA3FF543F30E509541FFEE4931E
:1002F500A360010ECF54C025E060A840B8E493A3E5
:10030500FAE493A3F8E493A3C8C582C8CAC583CA0F
:10031500F0A3C8C582C8CAC583CADFE9DEE780BEC7
:01049C00005F
:00000001FF
