:10095E0012000E120A031209D0120935D2AF120379
:03096E003C80FBCF
:0B082300AF0EAE0DAD0CAC0B12068347
:10082E007E08C2CCC2B0AD061EED6015EF30E704F7
:10083E00D2B08002C2B0D2CC00C2CCEF25E0FF8095
:03084E00E5D2B040
:010851002284
:1008E900E4FFFEEF25E030B0054401FF8001FFD2AF
:0908F900CC00C2CC000EBE08EADE
:0109020022D2
:10099500AC05C2CD12082E00AF0412082ED2CD220E
:0D09B500C2CD43074012082E1208E9D2CD32
:0109C2002212
:1007F2008F0E8E0D8D0C8C0BC2CD7F0612082E78BB
:10080200181208237810120823AF0EAE0DAD0CACEF
:100812000B780812068312082EAF0E12082ED2CDC4
:0108220022B3
:10090300C2CD7F4612082EE4FD1208E974432DF888
:08091300A6070DBD04F3D2CDCF
:01091B0022B9
:10091C00C2CD7F4512082EE4FD1208E974472DF86C
:08092C00A6070DBD15F3D2CDA5
:0109340022A0
:08000300C2CD12082ED2CD225D
:0609FA00E4FDFF02099577
:0809E8007F0C7EA9DEFEDFFC9E
:0109F00022E4
:10094A00AD07AC06ED1DAE0470011C4E6005120920
:04095A00E880F1221E
:10097100AB07AA06C2B112094AD2B1AF03AE020255
:02098100094A21
:0D09C3008F828E83AF82AE8312097180F7A0
:030A0000B2B1226E
:1008A0008FC48EC375C70143C78275C50375C65A09
:1008B00075C6A50000000075C4FF75C3FFE4F5C749
:0508C000F5C5F5C6229C
:100852008FC48EC375C70143C78275C50175C65A59
:1008620075C6A50000000075C4FF75C3FFE4F5C797
:07087200F5C5F5C6AFC22277
:100879008DC28FC48EC375C70143C78275C5027502
:10088900C65A75C6A50000000075C4FF75C3FFE40C
:07089900F5C7F5C5F5C62205
:0C09D000538EFBE4F5D7F5D6438E1022C1
:0C09DC00538EEFE4F5D6F5D7438E1022C1
:10048200FF42001400FFFF000000000121050050A0
:100492009E4B0002162B1200628080000A32C30FAC
:1004A20013C300FF00003B001747800301451800FB
:1004B200010FFF0A5A14641E6E287832823C8C4661
:1004C2009650A0A05096468C3C823278286E1E64CC
:1004D200145A0A0A5A50A0146446961E6E3C8C287E
:1004E200783282823278288C3C6E1E96466414A042
:1004F200505A0A28780A5A50A014641E6E3C8C3254
:10050200824696964682328C3C6E1E6414A0505AE5
:100512000A782850A028780A5A1E6E3C8C328246ED
:100522009614646414964682328C3C6E1E5A0A7883
:1005320028A05050A046963C8C28780A5A32821E37
:100542006E146464146E1E82325A0A78288C3C96A9
:1005520046A05046963C8C50A028780A5A1E6E320D
:10056200821464641482326E1E5A0A7828A0508C57
:100572003C964646960A5A3C8C146450A028781E33
:100582006E328282326E1E7828A05064148C3C5ADD
:100592000A964646960A5A50A03C8C28781E6E321D
:1005A200821464641482326E1E78288C3CA0505AE5
:0305B2000A964660
:1008C500102C05DC05DC041A05DC05DC05DC05DC83
:0B08D50005DCC1000240000001210012
:10073500805F7F0A7E0012094A0521E521C39432B4
:0A0745004005B2B1E4F52120B3E84D
:10074F00E4FF1209B58F0BE50BC413540720E037F4
:10075F0012091C7F0A7E001208A0E4F50CE50C2498
:10076F000AFFE433FE7447250CF8E6FD120879748E
:10077F0047250CF8E6FF7423250CF8A607050CE5B2
:07078F000CC3940540D722C2
:100796007FA01200037FF0120003E4FD7F0F120911
:0807A600957FC0120003808959
:1009A50020B10A7F017E0012094A7F01227F0022C1
:10000E00D2CDD2B0C2CC7F0A7E0012094A1209FAB2
:10001E007F2A7EC57D757C541207F2E4F508E5084B
:10002E0090048293FDF46005AF081209950508E56A
:10003E0008C3943340E87FA01200037D017F0212B3
:10004E0009957F021209B5EF600B7F221209B5EFF9
:10005E0030E4EF80ED7D137F241209957D3B7F26E2
:10006E00120995E4FD7F0F1209957D027F02120998
:10007E00957F021209B5EF600B7F251209B5EF309F
:10008E00E3EF80ED7DA07F0F1209957D027F0212B6
:10009E0009957F021209B5EF600B7F251209B5EFA6
:1000AE0030E3EF80ED7D087F251209957FA01200C9
:1000BE00031209A5EF24FF9200C2B17F327E001217
:0E00CE00094AD2B17F327E0012094A20002E6C
:1000DC007F0A7E001208528F0AE50AB4AADD750960
:1000EC0001E509240AFFE433FE12085274232509A2
:0E00FC00F8A6070509E509C3940540E580074D
:10010A00120735C2B180FEAF25E4FCFDFE78081265
:10011A000696A804A905AA06AB07EB4524FFEAFE42
:10012A00E9FDE8FCC004C005C006C007AF26E4FC30
:10013A00FDFE7810120696D003D002D001D000EF4F
:10014A004BFFEE4AFEED49FDEC48FCC004C005C079
:10015A0006C007AF27E4FCFDFE7818120696D00306
:10016A00D002D001D000EF4BF52BEE4AF52AED492B
:10017A00F529EC48F528E52B540FFF8F42E52BFFB4
:10018A00E4FEFDFC7B10FAF9F81205F18F22E4F582
:0B019A003EE522D394094003752209C2
:0101A5002237
:10033C001209DCE542C454F024B5F582E43404F52A
:10034C0083E582253EF582E43583F583E493C395FA
:10035C0022F53F153F7FA01200037FF0120003AD82
:10036C003F7F0F1209957FC0120003E53E04540F26
:02037C00F53E4C
:0B037E00D3E54194EEE54094024020DE
:10038900E4F540F541F50AE50A25E0242CF876055F
:100399000876DC050AE50AB408ED75300475311AEA
:1003A900AFD6EFFEADD7EDD394D0EE6480948740FD
:1003B90034D2B1E53E04540FF53EFFE542C454F092
:1003C90024B5F582E43404F583E5822FF582E4351A
:1003D90083F583E493C39522F53F153F0541E54134
:1003E900700205402220B38DE4FF1209B58F08E59C
:1003F90008C413540720E003D38001C34003020358
:100409007E12091CE5486524600302037EE54965FF
:1004190025600302037EE54A6526600302037EE543
:100429004B6527600302037EC2B1E4F540F541F54F
:1004390009C2AFE50925E0244DF8E6FEE50925E006
:10044900244CF8E67C002400F53DEC3EF53CD2AFA7
:10045900D3E53D9484E53C94034016E53D9498E545
:100469003C9408500CE50925E0242CF8A63C08A684
:080479003D0509E509B408B9CD
:010481002258
:1009830003E8044C04B00514057805DC064006A40E
:0209930000A8BA
:0808E000020F000002114E207E
:030A0300C2B2225A
:10093500538E7F5389F0438901E4F58AF58CC28D86
:05094500D28CD2A922B2
:0909F100C28C8F8C8D8AD28C22FD
:03000B000201A649
:1001A600C0E0C0F0C083C082C0D075D000C000C01F
:0D01B60001C002C003C004C005C006C007A0
:1001C300C3E5109410E50F94004003020287E51085
:1001D30020E00302028CC2B2E50FC313E51013251E
:1001E300E0242CF8E6FE08E62470FFEE34FEFE90D1
:1001F3000993E493FC740193FDC3EF9DFFEE9CFA16
:10020300E4C39FFFE49AFE74019400FDE49400FCB0
:10021300E4FB7A01F9F81207AEC007E50FC313E553
:10022300101325E0242CF8E6FE08E62470FFEE34D4
:10023300FEFE900993E493FC740193FDC3EF9DFFCD
:10024300EE9CFAE4C39FFFE49AFE74019400FDE47C
:100253009400FCE4FB7A01F9F81207AEAF03AD0793
:10026300D0071209F1E50FC313E5101325E0242C81
:10027300F8E6FE08E6FFC3E5129FF512E5119EF5C9
:1002830011020309E51020E008D2B27D707FFE80E1
:1002930072C2B2E5122470FFE51134FEFE90099399
:1002A300E493FC740193FDC3EF9DFFEE9CFAE4C35A
:1002B3009FFFE49AFE74019400FDE49400FCE4FBC8
:1002C3007A01F9F81207AEC007E5122470FFE511B1
:1002D30034FEFE900993E493FC740193FDC3EF9DF8
:1002E300FFEE9CFAE4C39FFFE49AFE74019400FDC1
:1002F300E49400FCE4FB7A01F9F81207AEAF03AD16
:1003030007D0071209F10510E5107002050F6412FA
:0E031300450F700AF50FF51075114E7512208A
:10032100D007D006D005D004D003D002D001D00030
:0B033100D0D0D082D083D0F0D0E032DA
:030000000206A94C
:0C06A900787FE4F6D8FD75815B0206F056
:1005B50075F008758200EF2FFFEE33FECD33CDCCFD
:1005C50033CCC58233C5829BED9AEC99E582984080
:1005D5000CF582EE9BFEED9AFDEC99FC0FD5F0D65D
:1005E500E4CEFBE4CDFAE4CCF9A88222B800C1B987
:1005F5000059BA002DEC8BF084CFCECDFCE5F0CBC5
:10060500F97818EF2FFFEE33FEED33FDEC33FCEBFD
:1006150033FB10D703994004EB99FB0FD8E5E4F9B8
:10062500FA227818EF2FFFEE33FEED33FDEC33FCA5
:10063500C933C910D7059BE99A4007EC9BFCE99A99
:10064500F90FD8E0E4C9FAE4CCFB2275F010EF2FDE
:10065500FFEE33FEED33FDCC33CCC833C810D707DE
:100665009BEC9AE899400AED9BFDEC9AFCE899F819
:0E0675000FD5F0DAE4CDFBE4CCFAE4C8F922AC
:1007AE00C2D5E830E70FB2D5E4C39BFBE49AFAE476
:1007BE0099F9E498F8EC30E717B2D51207E4120570
:1007CE00F1E4C39BFBE49AFAE499F9E498F8800308
:1007DE001205F130D50DE4C39FFFE49EFEE49DFDAE
:0407EE00E49CFC2269
:10068300E8600FECC313FCED13FDEE13FEEF13FF55
:03069300D8F12279
:10069600E8600FEFC333FFEE33FEED33FDEC33FCC2
:0306A600D8F12266
:1006B50002095EE493A3F8E493A34003F68001F2F4
:1006C50008DFF48029E493A3F85407240CC8C33346
:1006D500C4540F4420C8834004F456800146F6DF15
:1006E500E4800B01020408102040809008C5E47ED8
:1006F500019360BCA3FF543F30E509541FFEE4930A
:10070500A360010ECF54C025E060A840B8E493A3D0
:10071500FAE493A3F8E493A3C8C582C8CAC583CAFB
:10072500F0A3C8C582C8CAC583CADFE9DEE780BEB3
:0108E800000F
:00000001FF
